{
	"data": {
		"bytecode": {
			"linkReferences": {},
			"object": "608060405234801561000f575f80fd5b5060405161211f38038061211f833981810160405281019061003191906104a2565b5f825111610074576040517f08c379a000000000000000000000000000000000000000000000000000000000815260040161006b90610556565b60405180910390fd5b5f81118015610084575081518111155b6100c3576040517f08c379a00000000000000000000000000000000000000000000000000000000081526004016100ba906105e4565b60405180910390fd5b5f5b82518110156102a5575f8382815181106100e2576100e1610602565b5b602002602001015190505f73ffffffffffffffffffffffffffffffffffffffff168173ffffffffffffffffffffffffffffffffffffffff160361015a576040517f08c379a000000000000000000000000000000000000000000000000000000000815260040161015190610679565b60405180910390fd5b60015f8273ffffffffffffffffffffffffffffffffffffffff1673ffffffffffffffffffffffffffffffffffffffff1681526020019081526020015f205f9054906101000a900460ff16156101e4576040517f08c379a00000000000000000000000000000000000000000000000000000000081526004016101db906106e1565b60405180910390fd5b6001805f8373ffffffffffffffffffffffffffffffffffffffff1673ffffffffffffffffffffffffffffffffffffffff1681526020019081526020015f205f6101000a81548160ff0219169083151502179055505f81908060018154018082558091505060019003905f5260205f20015f9091909190916101000a81548173ffffffffffffffffffffffffffffffffffffffff021916908373ffffffffffffffffffffffffffffffffffffffff1602179055505080806001019150506100c5565b508060028190555050506106ff565b5f604051905090565b5f80fd5b5f80fd5b5f80fd5b5f601f19601f8301169050919050565b7f4e487b71000000000000000000000000000000000000000000000000000000005f52604160045260245ffd5b61030f826102c9565b810181811067ffffffffffffffff8211171561032e5761032d6102d9565b5b80604052505050565b5f6103406102b4565b905061034c8282610306565b919050565b5f67ffffffffffffffff82111561036b5761036a6102d9565b5b602082029050602081019050919050565b5f80fd5b5f73ffffffffffffffffffffffffffffffffffffffff82169050919050565b5f6103a982610380565b9050919050565b6103b98161039f565b81146103c3575f80fd5b50565b5f815190506103d4816103b0565b92915050565b5f6103ec6103e784610351565b610337565b9050808382526020820190506020840283018581111561040f5761040e61037c565b5b835b81811015610438578061042488826103c6565b845260208401935050602081019050610411565b5050509392505050565b5f82601f830112610456576104556102c5565b5b81516104668482602086016103da565b91505092915050565b5f819050919050565b6104818161046f565b811461048b575f80fd5b50565b5f8151905061049c81610478565b92915050565b5f80604083850312156104b8576104b76102bd565b5b5f83015167ffffffffffffffff8111156104d5576104d46102c1565b5b6104e185828601610442565b92505060206104f28582860161048e565b9150509250929050565b5f82825260208201905092915050565b7f6f776e65722072657175697265640000000000000000000000000000000000005f82015250565b5f610540600e836104fc565b915061054b8261050c565b602082019050919050565b5f6020820190508181035f83015261056d81610534565b9050919050565b7f696e76616c6964207265717569726564206e756d626572206f66206f776e65725f8201527f7300000000000000000000000000000000000000000000000000000000000000602082015250565b5f6105ce6021836104fc565b91506105d982610574565b604082019050919050565b5f6020820190508181035f8301526105fb816105c2565b9050919050565b7f4e487b71000000000000000000000000000000000000000000000000000000005f52603260045260245ffd5b7f696e76616c6964206f776e6572000000000000000000000000000000000000005f82015250565b5f610663600d836104fc565b915061066e8261062f565b602082019050919050565b5f6020820190508181035f83015261069081610657565b9050919050565b7f6f776e6572206973206e6f7420756e69717565000000000000000000000000005f82015250565b5f6106cb6013836104fc565b91506106d682610697565b602082019050919050565b5f6020820190508181035f8301526106f8816106bf565b9050919050565b611a138061070c5f395ff3fe60806040526004361061009f575f3560e01c80636bdddcde116100635780636bdddcde146101fe5780638253951a146102265780639ace38c214610262578063ba7e7cab146102a1578063dc8452cd146102dd578063fe0d94c114610307576100f4565b8063025e7c27146100f857806312065fe01461013457806314de327f1461015e57806320c5429b1461019a5780632f54bf6e146101c2576100f4565b366100f4573373ffffffffffffffffffffffffffffffffffffffff167fe1fffcc4923d04b559f4d29a8bfc6cda04eb5b0d3c460751c2402c5c5cc9109c346040516100ea9190610f7f565b60405180910390a2005b5f80fd5b348015610103575f80fd5b5061011e60048036038101906101199190610fca565b61032f565b60405161012b9190611034565b60405180910390f35b34801561013f575f80fd5b50610148610369565b6040516101559190610f7f565b60405180910390f35b348015610169575f80fd5b50610184600480360381019061017f91906110d8565b610370565b6040516101919190610f7f565b60405180910390f35b3480156101a5575f80fd5b506101c060048036038101906101bb9190610fca565b61057d565b005b3480156101cd575f80fd5b506101e860048036038101906101e39190611149565b610803565b6040516101f5919061118e565b60405180910390f35b348015610209575f80fd5b50610224600480360381019061021f9190610fca565b610820565b005b348015610231575f80fd5b5061024c600480360381019061024791906111a7565b610aaa565b604051610259919061118e565b60405180910390f35b34801561026d575f80fd5b5061028860048036038101906102839190610fca565b610ad4565b6040516102989493929190611255565b60405180910390f35b3480156102ac575f80fd5b506102c760048036038101906102c29190610fca565b610bc0565b6040516102d49190610f7f565b60405180910390f35b3480156102e8575f80fd5b506102f1610c8d565b6040516102fe9190610f7f565b60405180910390f35b348015610312575f80fd5b5061032d60048036038101906103289190610fca565b610c93565b005b5f818154811061033d575f80fd5b905f5260205f20015f915054906101000a900473ffffffffffffffffffffffffffffffffffffffff1681565b5f47905090565b5f60015f3373ffffffffffffffffffffffffffffffffffffffff1673ffffffffffffffffffffffffffffffffffffffff1681526020019081526020015f205f9054906101000a900460ff166103fa576040517f08c379a00000000000000000000000000000000000000000000000000000000081526004016103f1906112f9565b60405180910390fd5b600360405180608001604052808773ffffffffffffffffffffffffffffffffffffffff16815260200186815260200185858080601f0160208091040260200160405190810160405280939291908181526020018383808284375f81840152601f19601f8201169050808301925050505050505081526020015f1515815250908060018154018082558091505060019003905f5260205f2090600402015f909190919091505f820151815f015f6101000a81548173ffffffffffffffffffffffffffffffffffffffff021916908373ffffffffffffffffffffffffffffffffffffffff160217905550602082015181600101556040820151816002019081610501919061153e565b506060820151816003015f6101000a81548160ff02191690831515021790555050506001600380549050610535919061163a565b7f08324b3d745b914e3abd4ffbfead91e3b78391a98c173202129215ab933adfbe60405160405180910390a26001600380549050610573919061163a565b9050949350505050565b60015f3373ffffffffffffffffffffffffffffffffffffffff1673ffffffffffffffffffffffffffffffffffffffff1681526020019081526020015f205f9054906101000a900460ff16610606576040517f08c379a00000000000000000000000000000000000000000000000000000000081526004016105fd906112f9565b60405180910390fd5b80600380549050811061064e576040517f08c379a0000000000000000000000000000000000000000000000000000000008152600401610645906116b7565b60405180910390fd5b8160038181548110610663576106626116d5565b5b905f5260205f2090600402016003015f9054906101000a900460ff16156106bf576040517f08c379a00000000000000000000000000000000000000000000000000000000081526004016106b69061174c565b60405180910390fd5b60045f8481526020019081526020015f205f3373ffffffffffffffffffffffffffffffffffffffff1673ffffffffffffffffffffffffffffffffffffffff1681526020019081526020015f205f9054906101000a900460ff16610757576040517f08c379a000000000000000000000000000000000000000000000000000000000815260040161074e906117b4565b60405180910390fd5b5f60045f8581526020019081526020015f205f3373ffffffffffffffffffffffffffffffffffffffff1673ffffffffffffffffffffffffffffffffffffffff1681526020019081526020015f205f6101000a81548160ff021916908315150217905550823373ffffffffffffffffffffffffffffffffffffffff167fec9ab91322523c899ede7830ec9bfc992b5981cdcc27b91162fb23de5791117b60405160405180910390a3505050565b6001602052805f5260405f205f915054906101000a900460ff1681565b60015f3373ffffffffffffffffffffffffffffffffffffffff1673ffffffffffffffffffffffffffffffffffffffff1681526020019081526020015f205f9054906101000a900460ff166108a9576040517f08c379a00000000000000000000000000000000000000000000000000000000081526004016108a0906112f9565b60405180910390fd5b8060038054905081106108f1576040517f08c379a00000000000000000000000000000000000000000000000000000000081526004016108e8906116b7565b60405180910390fd5b8160045f8281526020019081526020015f205f3373ffffffffffffffffffffffffffffffffffffffff1673ffffffffffffffffffffffffffffffffffffffff1681526020019081526020015f205f9054906101000a900460ff161561098b576040517f08c379a00000000000000000000000000000000000000000000000000000000081526004016109829061181c565b60405180910390fd5b82600381815481106109a05761099f6116d5565b5b905f5260205f2090600402016003015f9054906101000a900460ff16156109fc576040517f08c379a00000000000000000000000000000000000000000000000000000000081526004016109f39061174c565b60405180910390fd5b600160045f8681526020019081526020015f205f3373ffffffffffffffffffffffffffffffffffffffff1673ffffffffffffffffffffffffffffffffffffffff1681526020019081526020015f205f6101000a81548160ff021916908315150217905550833373ffffffffffffffffffffffffffffffffffffffff167f90ec57f18fa7b15c6b8d5e4d1deb90796c74b2ff23d4d0cecad0cb42a96b312860405160405180910390a350505050565b6004602052815f5260405f20602052805f5260405f205f915091509054906101000a900460ff1681565b60038181548110610ae3575f80fd5b905f5260205f2090600402015f91509050805f015f9054906101000a900473ffffffffffffffffffffffffffffffffffffffff1690806001015490806002018054610b2d90611371565b80601f0160208091040260200160405190810160405280929190818152602001828054610b5990611371565b8015610ba45780601f10610b7b57610100808354040283529160200191610ba4565b820191905f5260205f20905b815481529060010190602001808311610b8757829003601f168201915b505050505090806003015f9054906101000a900460ff16905084565b5f805f90505b5f80549050811015610c875760045f8481526020019081526020015f205f808381548110610bf757610bf66116d5565b5b905f5260205f20015f9054906101000a900473ffffffffffffffffffffffffffffffffffffffff1673ffffffffffffffffffffffffffffffffffffffff1673ffffffffffffffffffffffffffffffffffffffff1681526020019081526020015f205f9054906101000a900460ff1615610c7a57600182610c77919061183a565b91505b8080600101915050610bc6565b50919050565b60025481565b60015f3373ffffffffffffffffffffffffffffffffffffffff1673ffffffffffffffffffffffffffffffffffffffff1681526020019081526020015f205f9054906101000a900460ff16610d1c576040517f08c379a0000000000000000000000000000000000000000000000000000000008152600401610d13906112f9565b60405180910390fd5b806003805490508110610d64576040517f08c379a0000000000000000000000000000000000000000000000000000000008152600401610d5b906116b7565b60405180910390fd5b8160038181548110610d7957610d786116d5565b5b905f5260205f2090600402016003015f9054906101000a900460ff1615610dd5576040517f08c379a0000000000000000000000000000000000000000000000000000000008152600401610dcc9061174c565b60405180910390fd5b600254610de184610bc0565b11610e21576040517f08c379a0000000000000000000000000000000000000000000000000000000008152600401610e18906118b7565b60405180910390fd5b5f60038481548110610e3657610e356116d5565b5b905f5260205f20906004020190506001816003015f6101000a81548160ff0219169083151502179055505f815f015f9054906101000a900473ffffffffffffffffffffffffffffffffffffffff1673ffffffffffffffffffffffffffffffffffffffff16826001015483600201604051610eb0919061195f565b5f6040518083038185875af1925050503d805f8114610eea576040519150601f19603f3d011682016040523d82523d5f602084013e610eef565b606091505b5050905080610f33576040517f08c379a0000000000000000000000000000000000000000000000000000000008152600401610f2a906119bf565b60405180910390fd5b847fddb556f1d2c1ec821e910b019d3685b229db152a0ecd517ca7e24b8bd713928960405160405180910390a25050505050565b5f819050919050565b610f7981610f67565b82525050565b5f602082019050610f925f830184610f70565b92915050565b5f80fd5b5f80fd5b610fa981610f67565b8114610fb3575f80fd5b50565b5f81359050610fc481610fa0565b92915050565b5f60208284031215610fdf57610fde610f98565b5b5f610fec84828501610fb6565b91505092915050565b5f73ffffffffffffffffffffffffffffffffffffffff82169050919050565b5f61101e82610ff5565b9050919050565b61102e81611014565b82525050565b5f6020820190506110475f830184611025565b92915050565b61105681611014565b8114611060575f80fd5b50565b5f813590506110718161104d565b92915050565b5f80fd5b5f80fd5b5f80fd5b5f8083601f84011261109857611097611077565b5b8235905067ffffffffffffffff8111156110b5576110b461107b565b5b6020830191508360018202830111156110d1576110d061107f565b5b9250929050565b5f805f80606085870312156110f0576110ef610f98565b5b5f6110fd87828801611063565b945050602061110e87828801610fb6565b935050604085013567ffffffffffffffff81111561112f5761112e610f9c565b5b61113b87828801611083565b925092505092959194509250565b5f6020828403121561115e5761115d610f98565b5b5f61116b84828501611063565b91505092915050565b5f8115159050919050565b61118881611174565b82525050565b5f6020820190506111a15f83018461117f565b92915050565b5f80604083850312156111bd576111bc610f98565b5b5f6111ca85828601610fb6565b92505060206111db85828601611063565b9150509250929050565b5f81519050919050565b5f82825260208201905092915050565b8281835e5f83830152505050565b5f601f19601f8301169050919050565b5f611227826111e5565b61123181856111ef565b93506112418185602086016111ff565b61124a8161120d565b840191505092915050565b5f6080820190506112685f830187611025565b6112756020830186610f70565b8181036040830152611287818561121d565b9050611296606083018461117f565b95945050505050565b5f82825260208201905092915050565b7f6e6f74206f776e657200000000000000000000000000000000000000000000005f82015250565b5f6112e360098361129f565b91506112ee826112af565b602082019050919050565b5f6020820190508181035f830152611310816112d7565b9050919050565b7f4e487b71000000000000000000000000000000000000000000000000000000005f52604160045260245ffd5b7f4e487b71000000000000000000000000000000000000000000000000000000005f52602260045260245ffd5b5f600282049050600182168061138857607f821691505b60208210810361139b5761139a611344565b5b50919050565b5f819050815f5260205f209050919050565b5f6020601f8301049050919050565b5f82821b905092915050565b5f600883026113fd7fffffffffffffffffffffffffffffffffffffffffffffffffffffffffffffffff826113c2565b61140786836113c2565b95508019841693508086168417925050509392505050565b5f819050919050565b5f61144261143d61143884610f67565b61141f565b610f67565b9050919050565b5f819050919050565b61145b83611428565b61146f61146782611449565b8484546113ce565b825550505050565b5f90565b611483611477565b61148e818484611452565b505050565b5b818110156114b1576114a65f8261147b565b600181019050611494565b5050565b601f8211156114f6576114c7816113a1565b6114d0846113b3565b810160208510156114df578190505b6114f36114eb856113b3565b830182611493565b50505b505050565b5f82821c905092915050565b5f6115165f19846008026114fb565b1980831691505092915050565b5f61152e8383611507565b9150826002028217905092915050565b611547826111e5565b67ffffffffffffffff8111156115605761155f611317565b5b61156a8254611371565b6115758282856114b5565b5f60209050601f8311600181146115a6575f8415611594578287015190505b61159e8582611523565b865550611605565b601f1984166115b4866113a1565b5f5b828110156115db578489015182556001820191506020850194506020810190506115b6565b868310156115f857848901516115f4601f891682611507565b8355505b6001600288020188555050505b505050505050565b7f4e487b71000000000000000000000000000000000000000000000000000000005f52601160045260245ffd5b5f61164482610f67565b915061164f83610f67565b92508282039050818111156116675761166661160d565b5b92915050565b7f747820646f6573277420657869737400000000000000000000000000000000005f82015250565b5f6116a1600f8361129f565b91506116ac8261166d565b602082019050919050565b5f6020820190508181035f8301526116ce81611695565b9050919050565b7f4e487b71000000000000000000000000000000000000000000000000000000005f52603260045260245ffd5b7f74782069732065786563746564000000000000000000000000000000000000005f82015250565b5f611736600d8361129f565b915061174182611702565b602082019050919050565b5f6020820190508181035f8301526117638161172a565b9050919050565b7f7478206e6f7420617070726f76656400000000000000000000000000000000005f82015250565b5f61179e600f8361129f565b91506117a98261176a565b602082019050919050565b5f6020820190508181035f8301526117cb81611792565b9050919050565b7f747820616c726561647920617070726f766564000000000000000000000000005f82015250565b5f61180660138361129f565b9150611811826117d2565b602082019050919050565b5f6020820190508181035f830152611833816117fa565b9050919050565b5f61184482610f67565b915061184f83610f67565b92508282019050808211156118675761186661160d565b5b92915050565b7f617070726f76616c73203c2072657175697265640000000000000000000000005f82015250565b5f6118a160148361129f565b91506118ac8261186d565b602082019050919050565b5f6020820190508181035f8301526118ce81611895565b9050919050565b5f81905092915050565b5f81546118eb81611371565b6118f581866118d5565b9450600182165f811461190f576001811461192457611956565b60ff1983168652811515820286019350611956565b61192d856113a1565b5f5b8381101561194e5781548189015260018201915060208101905061192f565b838801955050505b50505092915050565b5f61196a82846118df565b915081905092915050565b7f7478206661696c656400000000000000000000000000000000000000000000005f82015250565b5f6119a960098361129f565b91506119b482611975565b602082019050919050565b5f6020820190508181035f8301526119d68161199d565b905091905056fea26469706673582212207a92c93ee6a67f5c5d2586d41f3ee6a841ff8f1accdad0f7c2f435463c7b49b564736f6c634300081a0033",
			"opcodes": "PUSH1 0x80 PUSH1 0x40 MSTORE CALLVALUE DUP1 ISZERO PUSH2 0xF JUMPI PUSH0 DUP1 REVERT JUMPDEST POP PUSH1 0x40 MLOAD PUSH2 0x211F CODESIZE SUB DUP1 PUSH2 0x211F DUP4 CODECOPY DUP2 DUP2 ADD PUSH1 0x40 MSTORE DUP2 ADD SWAP1 PUSH2 0x31 SWAP2 SWAP1 PUSH2 0x4A2 JUMP JUMPDEST PUSH0 DUP3 MLOAD GT PUSH2 0x74 JUMPI PUSH1 0x40 MLOAD PUSH32 0x8C379A000000000000000000000000000000000000000000000000000000000 DUP2 MSTORE PUSH1 0x4 ADD PUSH2 0x6B SWAP1 PUSH2 0x556 JUMP JUMPDEST PUSH1 0x40 MLOAD DUP1 SWAP2 SUB SWAP1 REVERT JUMPDEST PUSH0 DUP2 GT DUP1 ISZERO PUSH2 0x84 JUMPI POP DUP2 MLOAD DUP2 GT ISZERO JUMPDEST PUSH2 0xC3 JUMPI PUSH1 0x40 MLOAD PUSH32 0x8C379A000000000000000000000000000000000000000000000000000000000 DUP2 MSTORE PUSH1 0x4 ADD PUSH2 0xBA SWAP1 PUSH2 0x5E4 JUMP JUMPDEST PUSH1 0x40 MLOAD DUP1 SWAP2 SUB SWAP1 REVERT JUMPDEST PUSH0 JUMPDEST DUP3 MLOAD DUP2 LT ISZERO PUSH2 0x2A5 JUMPI PUSH0 DUP4 DUP3 DUP2 MLOAD DUP2 LT PUSH2 0xE2 JUMPI PUSH2 0xE1 PUSH2 0x602 JUMP JUMPDEST JUMPDEST PUSH1 0x20 MUL PUSH1 0x20 ADD ADD MLOAD SWAP1 POP PUSH0 PUSH20 0xFFFFFFFFFFFFFFFFFFFFFFFFFFFFFFFFFFFFFFFF AND DUP2 PUSH20 0xFFFFFFFFFFFFFFFFFFFFFFFFFFFFFFFFFFFFFFFF AND SUB PUSH2 0x15A JUMPI PUSH1 0x40 MLOAD PUSH32 0x8C379A000000000000000000000000000000000000000000000000000000000 DUP2 MSTORE PUSH1 0x4 ADD PUSH2 0x151 SWAP1 PUSH2 0x679 JUMP JUMPDEST PUSH1 0x40 MLOAD DUP1 SWAP2 SUB SWAP1 REVERT JUMPDEST PUSH1 0x1 PUSH0 DUP3 PUSH20 0xFFFFFFFFFFFFFFFFFFFFFFFFFFFFFFFFFFFFFFFF AND PUSH20 0xFFFFFFFFFFFFFFFFFFFFFFFFFFFFFFFFFFFFFFFF AND DUP2 MSTORE PUSH1 0x20 ADD SWAP1 DUP2 MSTORE PUSH1 0x20 ADD PUSH0 KECCAK256 PUSH0 SWAP1 SLOAD SWAP1 PUSH2 0x100 EXP SWAP1 DIV PUSH1 0xFF AND ISZERO PUSH2 0x1E4 JUMPI PUSH1 0x40 MLOAD PUSH32 0x8C379A000000000000000000000000000000000000000000000000000000000 DUP2 MSTORE PUSH1 0x4 ADD PUSH2 0x1DB SWAP1 PUSH2 0x6E1 JUMP JUMPDEST PUSH1 0x40 MLOAD DUP1 SWAP2 SUB SWAP1 REVERT JUMPDEST PUSH1 0x1 DUP1 PUSH0 DUP4 PUSH20 0xFFFFFFFFFFFFFFFFFFFFFFFFFFFFFFFFFFFFFFFF AND PUSH20 0xFFFFFFFFFFFFFFFFFFFFFFFFFFFFFFFFFFFFFFFF AND DUP2 MSTORE PUSH1 0x20 ADD SWAP1 DUP2 MSTORE PUSH1 0x20 ADD PUSH0 KECCAK256 PUSH0 PUSH2 0x100 EXP DUP2 SLOAD DUP2 PUSH1 0xFF MUL NOT AND SWAP1 DUP4 ISZERO ISZERO MUL OR SWAP1 SSTORE POP PUSH0 DUP2 SWAP1 DUP1 PUSH1 0x1 DUP2 SLOAD ADD DUP1 DUP3 SSTORE DUP1 SWAP2 POP POP PUSH1 0x1 SWAP1 SUB SWAP1 PUSH0 MSTORE PUSH1 0x20 PUSH0 KECCAK256 ADD PUSH0 SWAP1 SWAP2 SWAP1 SWAP2 SWAP1 SWAP2 PUSH2 0x100 EXP DUP2 SLOAD DUP2 PUSH20 0xFFFFFFFFFFFFFFFFFFFFFFFFFFFFFFFFFFFFFFFF MUL NOT AND SWAP1 DUP4 PUSH20 0xFFFFFFFFFFFFFFFFFFFFFFFFFFFFFFFFFFFFFFFF AND MUL OR SWAP1 SSTORE POP POP DUP1 DUP1 PUSH1 0x1 ADD SWAP2 POP POP PUSH2 0xC5 JUMP JUMPDEST POP DUP1 PUSH1 0x2 DUP2 SWAP1 SSTORE POP POP POP PUSH2 0x6FF JUMP JUMPDEST PUSH0 PUSH1 0x40 MLOAD SWAP1 POP SWAP1 JUMP JUMPDEST PUSH0 DUP1 REVERT JUMPDEST PUSH0 DUP1 REVERT JUMPDEST PUSH0 DUP1 REVERT JUMPDEST PUSH0 PUSH1 0x1F NOT PUSH1 0x1F DUP4 ADD AND SWAP1 POP SWAP2 SWAP1 POP JUMP JUMPDEST PUSH32 0x4E487B7100000000000000000000000000000000000000000000000000000000 PUSH0 MSTORE PUSH1 0x41 PUSH1 0x4 MSTORE PUSH1 0x24 PUSH0 REVERT JUMPDEST PUSH2 0x30F DUP3 PUSH2 0x2C9 JUMP JUMPDEST DUP2 ADD DUP2 DUP2 LT PUSH8 0xFFFFFFFFFFFFFFFF DUP3 GT OR ISZERO PUSH2 0x32E JUMPI PUSH2 0x32D PUSH2 0x2D9 JUMP JUMPDEST JUMPDEST DUP1 PUSH1 0x40 MSTORE POP POP POP JUMP JUMPDEST PUSH0 PUSH2 0x340 PUSH2 0x2B4 JUMP JUMPDEST SWAP1 POP PUSH2 0x34C DUP3 DUP3 PUSH2 0x306 JUMP JUMPDEST SWAP2 SWAP1 POP JUMP JUMPDEST PUSH0 PUSH8 0xFFFFFFFFFFFFFFFF DUP3 GT ISZERO PUSH2 0x36B JUMPI PUSH2 0x36A PUSH2 0x2D9 JUMP JUMPDEST JUMPDEST PUSH1 0x20 DUP3 MUL SWAP1 POP PUSH1 0x20 DUP2 ADD SWAP1 POP SWAP2 SWAP1 POP JUMP JUMPDEST PUSH0 DUP1 REVERT JUMPDEST PUSH0 PUSH20 0xFFFFFFFFFFFFFFFFFFFFFFFFFFFFFFFFFFFFFFFF DUP3 AND SWAP1 POP SWAP2 SWAP1 POP JUMP JUMPDEST PUSH0 PUSH2 0x3A9 DUP3 PUSH2 0x380 JUMP JUMPDEST SWAP1 POP SWAP2 SWAP1 POP JUMP JUMPDEST PUSH2 0x3B9 DUP2 PUSH2 0x39F JUMP JUMPDEST DUP2 EQ PUSH2 0x3C3 JUMPI PUSH0 DUP1 REVERT JUMPDEST POP JUMP JUMPDEST PUSH0 DUP2 MLOAD SWAP1 POP PUSH2 0x3D4 DUP2 PUSH2 0x3B0 JUMP JUMPDEST SWAP3 SWAP2 POP POP JUMP JUMPDEST PUSH0 PUSH2 0x3EC PUSH2 0x3E7 DUP5 PUSH2 0x351 JUMP JUMPDEST PUSH2 0x337 JUMP JUMPDEST SWAP1 POP DUP1 DUP4 DUP3 MSTORE PUSH1 0x20 DUP3 ADD SWAP1 POP PUSH1 0x20 DUP5 MUL DUP4 ADD DUP6 DUP2 GT ISZERO PUSH2 0x40F JUMPI PUSH2 0x40E PUSH2 0x37C JUMP JUMPDEST JUMPDEST DUP4 JUMPDEST DUP2 DUP2 LT ISZERO PUSH2 0x438 JUMPI DUP1 PUSH2 0x424 DUP9 DUP3 PUSH2 0x3C6 JUMP JUMPDEST DUP5 MSTORE PUSH1 0x20 DUP5 ADD SWAP4 POP POP PUSH1 0x20 DUP2 ADD SWAP1 POP PUSH2 0x411 JUMP JUMPDEST POP POP POP SWAP4 SWAP3 POP POP POP JUMP JUMPDEST PUSH0 DUP3 PUSH1 0x1F DUP4 ADD SLT PUSH2 0x456 JUMPI PUSH2 0x455 PUSH2 0x2C5 JUMP JUMPDEST JUMPDEST DUP2 MLOAD PUSH2 0x466 DUP5 DUP3 PUSH1 0x20 DUP7 ADD PUSH2 0x3DA JUMP JUMPDEST SWAP2 POP POP SWAP3 SWAP2 POP POP JUMP JUMPDEST PUSH0 DUP2 SWAP1 POP SWAP2 SWAP1 POP JUMP JUMPDEST PUSH2 0x481 DUP2 PUSH2 0x46F JUMP JUMPDEST DUP2 EQ PUSH2 0x48B JUMPI PUSH0 DUP1 REVERT JUMPDEST POP JUMP JUMPDEST PUSH0 DUP2 MLOAD SWAP1 POP PUSH2 0x49C DUP2 PUSH2 0x478 JUMP JUMPDEST SWAP3 SWAP2 POP POP JUMP JUMPDEST PUSH0 DUP1 PUSH1 0x40 DUP4 DUP6 SUB SLT ISZERO PUSH2 0x4B8 JUMPI PUSH2 0x4B7 PUSH2 0x2BD JUMP JUMPDEST JUMPDEST PUSH0 DUP4 ADD MLOAD PUSH8 0xFFFFFFFFFFFFFFFF DUP2 GT ISZERO PUSH2 0x4D5 JUMPI PUSH2 0x4D4 PUSH2 0x2C1 JUMP JUMPDEST JUMPDEST PUSH2 0x4E1 DUP6 DUP3 DUP7 ADD PUSH2 0x442 JUMP JUMPDEST SWAP3 POP POP PUSH1 0x20 PUSH2 0x4F2 DUP6 DUP3 DUP7 ADD PUSH2 0x48E JUMP JUMPDEST SWAP2 POP POP SWAP3 POP SWAP3 SWAP1 POP JUMP JUMPDEST PUSH0 DUP3 DUP3 MSTORE PUSH1 0x20 DUP3 ADD SWAP1 POP SWAP3 SWAP2 POP POP JUMP JUMPDEST PUSH32 0x6F776E6572207265717569726564000000000000000000000000000000000000 PUSH0 DUP3 ADD MSTORE POP JUMP JUMPDEST PUSH0 PUSH2 0x540 PUSH1 0xE DUP4 PUSH2 0x4FC JUMP JUMPDEST SWAP2 POP PUSH2 0x54B DUP3 PUSH2 0x50C JUMP JUMPDEST PUSH1 0x20 DUP3 ADD SWAP1 POP SWAP2 SWAP1 POP JUMP JUMPDEST PUSH0 PUSH1 0x20 DUP3 ADD SWAP1 POP DUP2 DUP2 SUB PUSH0 DUP4 ADD MSTORE PUSH2 0x56D DUP2 PUSH2 0x534 JUMP JUMPDEST SWAP1 POP SWAP2 SWAP1 POP JUMP JUMPDEST PUSH32 0x696E76616C6964207265717569726564206E756D626572206F66206F776E6572 PUSH0 DUP3 ADD MSTORE PUSH32 0x7300000000000000000000000000000000000000000000000000000000000000 PUSH1 0x20 DUP3 ADD MSTORE POP JUMP JUMPDEST PUSH0 PUSH2 0x5CE PUSH1 0x21 DUP4 PUSH2 0x4FC JUMP JUMPDEST SWAP2 POP PUSH2 0x5D9 DUP3 PUSH2 0x574 JUMP JUMPDEST PUSH1 0x40 DUP3 ADD SWAP1 POP SWAP2 SWAP1 POP JUMP JUMPDEST PUSH0 PUSH1 0x20 DUP3 ADD SWAP1 POP DUP2 DUP2 SUB PUSH0 DUP4 ADD MSTORE PUSH2 0x5FB DUP2 PUSH2 0x5C2 JUMP JUMPDEST SWAP1 POP SWAP2 SWAP1 POP JUMP JUMPDEST PUSH32 0x4E487B7100000000000000000000000000000000000000000000000000000000 PUSH0 MSTORE PUSH1 0x32 PUSH1 0x4 MSTORE PUSH1 0x24 PUSH0 REVERT JUMPDEST PUSH32 0x696E76616C6964206F776E657200000000000000000000000000000000000000 PUSH0 DUP3 ADD MSTORE POP JUMP JUMPDEST PUSH0 PUSH2 0x663 PUSH1 0xD DUP4 PUSH2 0x4FC JUMP JUMPDEST SWAP2 POP PUSH2 0x66E DUP3 PUSH2 0x62F JUMP JUMPDEST PUSH1 0x20 DUP3 ADD SWAP1 POP SWAP2 SWAP1 POP JUMP JUMPDEST PUSH0 PUSH1 0x20 DUP3 ADD SWAP1 POP DUP2 DUP2 SUB PUSH0 DUP4 ADD MSTORE PUSH2 0x690 DUP2 PUSH2 0x657 JUMP JUMPDEST SWAP1 POP SWAP2 SWAP1 POP JUMP JUMPDEST PUSH32 0x6F776E6572206973206E6F7420756E6971756500000000000000000000000000 PUSH0 DUP3 ADD MSTORE POP JUMP JUMPDEST PUSH0 PUSH2 0x6CB PUSH1 0x13 DUP4 PUSH2 0x4FC JUMP JUMPDEST SWAP2 POP PUSH2 0x6D6 DUP3 PUSH2 0x697 JUMP JUMPDEST PUSH1 0x20 DUP3 ADD SWAP1 POP SWAP2 SWAP1 POP JUMP JUMPDEST PUSH0 PUSH1 0x20 DUP3 ADD SWAP1 POP DUP2 DUP2 SUB PUSH0 DUP4 ADD MSTORE PUSH2 0x6F8 DUP2 PUSH2 0x6BF JUMP JUMPDEST SWAP1 POP SWAP2 SWAP1 POP JUMP JUMPDEST PUSH2 0x1A13 DUP1 PUSH2 0x70C PUSH0 CODECOPY PUSH0 RETURN INVALID PUSH1 0x80 PUSH1 0x40 MSTORE PUSH1 0x4 CALLDATASIZE LT PUSH2 0x9F JUMPI PUSH0 CALLDATALOAD PUSH1 0xE0 SHR DUP1 PUSH4 0x6BDDDCDE GT PUSH2 0x63 JUMPI DUP1 PUSH4 0x6BDDDCDE EQ PUSH2 0x1FE JUMPI DUP1 PUSH4 0x8253951A EQ PUSH2 0x226 JUMPI DUP1 PUSH4 0x9ACE38C2 EQ PUSH2 0x262 JUMPI DUP1 PUSH4 0xBA7E7CAB EQ PUSH2 0x2A1 JUMPI DUP1 PUSH4 0xDC8452CD EQ PUSH2 0x2DD JUMPI DUP1 PUSH4 0xFE0D94C1 EQ PUSH2 0x307 JUMPI PUSH2 0xF4 JUMP JUMPDEST DUP1 PUSH4 0x25E7C27 EQ PUSH2 0xF8 JUMPI DUP1 PUSH4 0x12065FE0 EQ PUSH2 0x134 JUMPI DUP1 PUSH4 0x14DE327F EQ PUSH2 0x15E JUMPI DUP1 PUSH4 0x20C5429B EQ PUSH2 0x19A JUMPI DUP1 PUSH4 0x2F54BF6E EQ PUSH2 0x1C2 JUMPI PUSH2 0xF4 JUMP JUMPDEST CALLDATASIZE PUSH2 0xF4 JUMPI CALLER PUSH20 0xFFFFFFFFFFFFFFFFFFFFFFFFFFFFFFFFFFFFFFFF AND PUSH32 0xE1FFFCC4923D04B559F4D29A8BFC6CDA04EB5B0D3C460751C2402C5C5CC9109C CALLVALUE PUSH1 0x40 MLOAD PUSH2 0xEA SWAP2 SWAP1 PUSH2 0xF7F JUMP JUMPDEST PUSH1 0x40 MLOAD DUP1 SWAP2 SUB SWAP1 LOG2 STOP JUMPDEST PUSH0 DUP1 REVERT JUMPDEST CALLVALUE DUP1 ISZERO PUSH2 0x103 JUMPI PUSH0 DUP1 REVERT JUMPDEST POP PUSH2 0x11E PUSH1 0x4 DUP1 CALLDATASIZE SUB DUP2 ADD SWAP1 PUSH2 0x119 SWAP2 SWAP1 PUSH2 0xFCA JUMP JUMPDEST PUSH2 0x32F JUMP JUMPDEST PUSH1 0x40 MLOAD PUSH2 0x12B SWAP2 SWAP1 PUSH2 0x1034 JUMP JUMPDEST PUSH1 0x40 MLOAD DUP1 SWAP2 SUB SWAP1 RETURN JUMPDEST CALLVALUE DUP1 ISZERO PUSH2 0x13F JUMPI PUSH0 DUP1 REVERT JUMPDEST POP PUSH2 0x148 PUSH2 0x369 JUMP JUMPDEST PUSH1 0x40 MLOAD PUSH2 0x155 SWAP2 SWAP1 PUSH2 0xF7F JUMP JUMPDEST PUSH1 0x40 MLOAD DUP1 SWAP2 SUB SWAP1 RETURN JUMPDEST CALLVALUE DUP1 ISZERO PUSH2 0x169 JUMPI PUSH0 DUP1 REVERT JUMPDEST POP PUSH2 0x184 PUSH1 0x4 DUP1 CALLDATASIZE SUB DUP2 ADD SWAP1 PUSH2 0x17F SWAP2 SWAP1 PUSH2 0x10D8 JUMP JUMPDEST PUSH2 0x370 JUMP JUMPDEST PUSH1 0x40 MLOAD PUSH2 0x191 SWAP2 SWAP1 PUSH2 0xF7F JUMP JUMPDEST PUSH1 0x40 MLOAD DUP1 SWAP2 SUB SWAP1 RETURN JUMPDEST CALLVALUE DUP1 ISZERO PUSH2 0x1A5 JUMPI PUSH0 DUP1 REVERT JUMPDEST POP PUSH2 0x1C0 PUSH1 0x4 DUP1 CALLDATASIZE SUB DUP2 ADD SWAP1 PUSH2 0x1BB SWAP2 SWAP1 PUSH2 0xFCA JUMP JUMPDEST PUSH2 0x57D JUMP JUMPDEST STOP JUMPDEST CALLVALUE DUP1 ISZERO PUSH2 0x1CD JUMPI PUSH0 DUP1 REVERT JUMPDEST POP PUSH2 0x1E8 PUSH1 0x4 DUP1 CALLDATASIZE SUB DUP2 ADD SWAP1 PUSH2 0x1E3 SWAP2 SWAP1 PUSH2 0x1149 JUMP JUMPDEST PUSH2 0x803 JUMP JUMPDEST PUSH1 0x40 MLOAD PUSH2 0x1F5 SWAP2 SWAP1 PUSH2 0x118E JUMP JUMPDEST PUSH1 0x40 MLOAD DUP1 SWAP2 SUB SWAP1 RETURN JUMPDEST CALLVALUE DUP1 ISZERO PUSH2 0x209 JUMPI PUSH0 DUP1 REVERT JUMPDEST POP PUSH2 0x224 PUSH1 0x4 DUP1 CALLDATASIZE SUB DUP2 ADD SWAP1 PUSH2 0x21F SWAP2 SWAP1 PUSH2 0xFCA JUMP JUMPDEST PUSH2 0x820 JUMP JUMPDEST STOP JUMPDEST CALLVALUE DUP1 ISZERO PUSH2 0x231 JUMPI PUSH0 DUP1 REVERT JUMPDEST POP PUSH2 0x24C PUSH1 0x4 DUP1 CALLDATASIZE SUB DUP2 ADD SWAP1 PUSH2 0x247 SWAP2 SWAP1 PUSH2 0x11A7 JUMP JUMPDEST PUSH2 0xAAA JUMP JUMPDEST PUSH1 0x40 MLOAD PUSH2 0x259 SWAP2 SWAP1 PUSH2 0x118E JUMP JUMPDEST PUSH1 0x40 MLOAD DUP1 SWAP2 SUB SWAP1 RETURN JUMPDEST CALLVALUE DUP1 ISZERO PUSH2 0x26D JUMPI PUSH0 DUP1 REVERT JUMPDEST POP PUSH2 0x288 PUSH1 0x4 DUP1 CALLDATASIZE SUB DUP2 ADD SWAP1 PUSH2 0x283 SWAP2 SWAP1 PUSH2 0xFCA JUMP JUMPDEST PUSH2 0xAD4 JUMP JUMPDEST PUSH1 0x40 MLOAD PUSH2 0x298 SWAP5 SWAP4 SWAP3 SWAP2 SWAP1 PUSH2 0x1255 JUMP JUMPDEST PUSH1 0x40 MLOAD DUP1 SWAP2 SUB SWAP1 RETURN JUMPDEST CALLVALUE DUP1 ISZERO PUSH2 0x2AC JUMPI PUSH0 DUP1 REVERT JUMPDEST POP PUSH2 0x2C7 PUSH1 0x4 DUP1 CALLDATASIZE SUB DUP2 ADD SWAP1 PUSH2 0x2C2 SWAP2 SWAP1 PUSH2 0xFCA JUMP JUMPDEST PUSH2 0xBC0 JUMP JUMPDEST PUSH1 0x40 MLOAD PUSH2 0x2D4 SWAP2 SWAP1 PUSH2 0xF7F JUMP JUMPDEST PUSH1 0x40 MLOAD DUP1 SWAP2 SUB SWAP1 RETURN JUMPDEST CALLVALUE DUP1 ISZERO PUSH2 0x2E8 JUMPI PUSH0 DUP1 REVERT JUMPDEST POP PUSH2 0x2F1 PUSH2 0xC8D JUMP JUMPDEST PUSH1 0x40 MLOAD PUSH2 0x2FE SWAP2 SWAP1 PUSH2 0xF7F JUMP JUMPDEST PUSH1 0x40 MLOAD DUP1 SWAP2 SUB SWAP1 RETURN JUMPDEST CALLVALUE DUP1 ISZERO PUSH2 0x312 JUMPI PUSH0 DUP1 REVERT JUMPDEST POP PUSH2 0x32D PUSH1 0x4 DUP1 CALLDATASIZE SUB DUP2 ADD SWAP1 PUSH2 0x328 SWAP2 SWAP1 PUSH2 0xFCA JUMP JUMPDEST PUSH2 0xC93 JUMP JUMPDEST STOP JUMPDEST PUSH0 DUP2 DUP2 SLOAD DUP2 LT PUSH2 0x33D JUMPI PUSH0 DUP1 REVERT JUMPDEST SWAP1 PUSH0 MSTORE PUSH1 0x20 PUSH0 KECCAK256 ADD PUSH0 SWAP2 POP SLOAD SWAP1 PUSH2 0x100 EXP SWAP1 DIV PUSH20 0xFFFFFFFFFFFFFFFFFFFFFFFFFFFFFFFFFFFFFFFF AND DUP2 JUMP JUMPDEST PUSH0 SELFBALANCE SWAP1 POP SWAP1 JUMP JUMPDEST PUSH0 PUSH1 0x1 PUSH0 CALLER PUSH20 0xFFFFFFFFFFFFFFFFFFFFFFFFFFFFFFFFFFFFFFFF AND PUSH20 0xFFFFFFFFFFFFFFFFFFFFFFFFFFFFFFFFFFFFFFFF AND DUP2 MSTORE PUSH1 0x20 ADD SWAP1 DUP2 MSTORE PUSH1 0x20 ADD PUSH0 KECCAK256 PUSH0 SWAP1 SLOAD SWAP1 PUSH2 0x100 EXP SWAP1 DIV PUSH1 0xFF AND PUSH2 0x3FA JUMPI PUSH1 0x40 MLOAD PUSH32 0x8C379A000000000000000000000000000000000000000000000000000000000 DUP2 MSTORE PUSH1 0x4 ADD PUSH2 0x3F1 SWAP1 PUSH2 0x12F9 JUMP JUMPDEST PUSH1 0x40 MLOAD DUP1 SWAP2 SUB SWAP1 REVERT JUMPDEST PUSH1 0x3 PUSH1 0x40 MLOAD DUP1 PUSH1 0x80 ADD PUSH1 0x40 MSTORE DUP1 DUP8 PUSH20 0xFFFFFFFFFFFFFFFFFFFFFFFFFFFFFFFFFFFFFFFF AND DUP2 MSTORE PUSH1 0x20 ADD DUP7 DUP2 MSTORE PUSH1 0x20 ADD DUP6 DUP6 DUP1 DUP1 PUSH1 0x1F ADD PUSH1 0x20 DUP1 SWAP2 DIV MUL PUSH1 0x20 ADD PUSH1 0x40 MLOAD SWAP1 DUP2 ADD PUSH1 0x40 MSTORE DUP1 SWAP4 SWAP3 SWAP2 SWAP1 DUP2 DUP2 MSTORE PUSH1 0x20 ADD DUP4 DUP4 DUP1 DUP3 DUP5 CALLDATACOPY PUSH0 DUP2 DUP5 ADD MSTORE PUSH1 0x1F NOT PUSH1 0x1F DUP3 ADD AND SWAP1 POP DUP1 DUP4 ADD SWAP3 POP POP POP POP POP POP POP DUP2 MSTORE PUSH1 0x20 ADD PUSH0 ISZERO ISZERO DUP2 MSTORE POP SWAP1 DUP1 PUSH1 0x1 DUP2 SLOAD ADD DUP1 DUP3 SSTORE DUP1 SWAP2 POP POP PUSH1 0x1 SWAP1 SUB SWAP1 PUSH0 MSTORE PUSH1 0x20 PUSH0 KECCAK256 SWAP1 PUSH1 0x4 MUL ADD PUSH0 SWAP1 SWAP2 SWAP1 SWAP2 SWAP1 SWAP2 POP PUSH0 DUP3 ADD MLOAD DUP2 PUSH0 ADD PUSH0 PUSH2 0x100 EXP DUP2 SLOAD DUP2 PUSH20 0xFFFFFFFFFFFFFFFFFFFFFFFFFFFFFFFFFFFFFFFF MUL NOT AND SWAP1 DUP4 PUSH20 0xFFFFFFFFFFFFFFFFFFFFFFFFFFFFFFFFFFFFFFFF AND MUL OR SWAP1 SSTORE POP PUSH1 0x20 DUP3 ADD MLOAD DUP2 PUSH1 0x1 ADD SSTORE PUSH1 0x40 DUP3 ADD MLOAD DUP2 PUSH1 0x2 ADD SWAP1 DUP2 PUSH2 0x501 SWAP2 SWAP1 PUSH2 0x153E JUMP JUMPDEST POP PUSH1 0x60 DUP3 ADD MLOAD DUP2 PUSH1 0x3 ADD PUSH0 PUSH2 0x100 EXP DUP2 SLOAD DUP2 PUSH1 0xFF MUL NOT AND SWAP1 DUP4 ISZERO ISZERO MUL OR SWAP1 SSTORE POP POP POP PUSH1 0x1 PUSH1 0x3 DUP1 SLOAD SWAP1 POP PUSH2 0x535 SWAP2 SWAP1 PUSH2 0x163A JUMP JUMPDEST PUSH32 0x8324B3D745B914E3ABD4FFBFEAD91E3B78391A98C173202129215AB933ADFBE PUSH1 0x40 MLOAD PUSH1 0x40 MLOAD DUP1 SWAP2 SUB SWAP1 LOG2 PUSH1 0x1 PUSH1 0x3 DUP1 SLOAD SWAP1 POP PUSH2 0x573 SWAP2 SWAP1 PUSH2 0x163A JUMP JUMPDEST SWAP1 POP SWAP5 SWAP4 POP POP POP POP JUMP JUMPDEST PUSH1 0x1 PUSH0 CALLER PUSH20 0xFFFFFFFFFFFFFFFFFFFFFFFFFFFFFFFFFFFFFFFF AND PUSH20 0xFFFFFFFFFFFFFFFFFFFFFFFFFFFFFFFFFFFFFFFF AND DUP2 MSTORE PUSH1 0x20 ADD SWAP1 DUP2 MSTORE PUSH1 0x20 ADD PUSH0 KECCAK256 PUSH0 SWAP1 SLOAD SWAP1 PUSH2 0x100 EXP SWAP1 DIV PUSH1 0xFF AND PUSH2 0x606 JUMPI PUSH1 0x40 MLOAD PUSH32 0x8C379A000000000000000000000000000000000000000000000000000000000 DUP2 MSTORE PUSH1 0x4 ADD PUSH2 0x5FD SWAP1 PUSH2 0x12F9 JUMP JUMPDEST PUSH1 0x40 MLOAD DUP1 SWAP2 SUB SWAP1 REVERT JUMPDEST DUP1 PUSH1 0x3 DUP1 SLOAD SWAP1 POP DUP2 LT PUSH2 0x64E JUMPI PUSH1 0x40 MLOAD PUSH32 0x8C379A000000000000000000000000000000000000000000000000000000000 DUP2 MSTORE PUSH1 0x4 ADD PUSH2 0x645 SWAP1 PUSH2 0x16B7 JUMP JUMPDEST PUSH1 0x40 MLOAD DUP1 SWAP2 SUB SWAP1 REVERT JUMPDEST DUP2 PUSH1 0x3 DUP2 DUP2 SLOAD DUP2 LT PUSH2 0x663 JUMPI PUSH2 0x662 PUSH2 0x16D5 JUMP JUMPDEST JUMPDEST SWAP1 PUSH0 MSTORE PUSH1 0x20 PUSH0 KECCAK256 SWAP1 PUSH1 0x4 MUL ADD PUSH1 0x3 ADD PUSH0 SWAP1 SLOAD SWAP1 PUSH2 0x100 EXP SWAP1 DIV PUSH1 0xFF AND ISZERO PUSH2 0x6BF JUMPI PUSH1 0x40 MLOAD PUSH32 0x8C379A000000000000000000000000000000000000000000000000000000000 DUP2 MSTORE PUSH1 0x4 ADD PUSH2 0x6B6 SWAP1 PUSH2 0x174C JUMP JUMPDEST PUSH1 0x40 MLOAD DUP1 SWAP2 SUB SWAP1 REVERT JUMPDEST PUSH1 0x4 PUSH0 DUP5 DUP2 MSTORE PUSH1 0x20 ADD SWAP1 DUP2 MSTORE PUSH1 0x20 ADD PUSH0 KECCAK256 PUSH0 CALLER PUSH20 0xFFFFFFFFFFFFFFFFFFFFFFFFFFFFFFFFFFFFFFFF AND PUSH20 0xFFFFFFFFFFFFFFFFFFFFFFFFFFFFFFFFFFFFFFFF AND DUP2 MSTORE PUSH1 0x20 ADD SWAP1 DUP2 MSTORE PUSH1 0x20 ADD PUSH0 KECCAK256 PUSH0 SWAP1 SLOAD SWAP1 PUSH2 0x100 EXP SWAP1 DIV PUSH1 0xFF AND PUSH2 0x757 JUMPI PUSH1 0x40 MLOAD PUSH32 0x8C379A000000000000000000000000000000000000000000000000000000000 DUP2 MSTORE PUSH1 0x4 ADD PUSH2 0x74E SWAP1 PUSH2 0x17B4 JUMP JUMPDEST PUSH1 0x40 MLOAD DUP1 SWAP2 SUB SWAP1 REVERT JUMPDEST PUSH0 PUSH1 0x4 PUSH0 DUP6 DUP2 MSTORE PUSH1 0x20 ADD SWAP1 DUP2 MSTORE PUSH1 0x20 ADD PUSH0 KECCAK256 PUSH0 CALLER PUSH20 0xFFFFFFFFFFFFFFFFFFFFFFFFFFFFFFFFFFFFFFFF AND PUSH20 0xFFFFFFFFFFFFFFFFFFFFFFFFFFFFFFFFFFFFFFFF AND DUP2 MSTORE PUSH1 0x20 ADD SWAP1 DUP2 MSTORE PUSH1 0x20 ADD PUSH0 KECCAK256 PUSH0 PUSH2 0x100 EXP DUP2 SLOAD DUP2 PUSH1 0xFF MUL NOT AND SWAP1 DUP4 ISZERO ISZERO MUL OR SWAP1 SSTORE POP DUP3 CALLER PUSH20 0xFFFFFFFFFFFFFFFFFFFFFFFFFFFFFFFFFFFFFFFF AND PUSH32 0xEC9AB91322523C899EDE7830EC9BFC992B5981CDCC27B91162FB23DE5791117B PUSH1 0x40 MLOAD PUSH1 0x40 MLOAD DUP1 SWAP2 SUB SWAP1 LOG3 POP POP POP JUMP JUMPDEST PUSH1 0x1 PUSH1 0x20 MSTORE DUP1 PUSH0 MSTORE PUSH1 0x40 PUSH0 KECCAK256 PUSH0 SWAP2 POP SLOAD SWAP1 PUSH2 0x100 EXP SWAP1 DIV PUSH1 0xFF AND DUP2 JUMP JUMPDEST PUSH1 0x1 PUSH0 CALLER PUSH20 0xFFFFFFFFFFFFFFFFFFFFFFFFFFFFFFFFFFFFFFFF AND PUSH20 0xFFFFFFFFFFFFFFFFFFFFFFFFFFFFFFFFFFFFFFFF AND DUP2 MSTORE PUSH1 0x20 ADD SWAP1 DUP2 MSTORE PUSH1 0x20 ADD PUSH0 KECCAK256 PUSH0 SWAP1 SLOAD SWAP1 PUSH2 0x100 EXP SWAP1 DIV PUSH1 0xFF AND PUSH2 0x8A9 JUMPI PUSH1 0x40 MLOAD PUSH32 0x8C379A000000000000000000000000000000000000000000000000000000000 DUP2 MSTORE PUSH1 0x4 ADD PUSH2 0x8A0 SWAP1 PUSH2 0x12F9 JUMP JUMPDEST PUSH1 0x40 MLOAD DUP1 SWAP2 SUB SWAP1 REVERT JUMPDEST DUP1 PUSH1 0x3 DUP1 SLOAD SWAP1 POP DUP2 LT PUSH2 0x8F1 JUMPI PUSH1 0x40 MLOAD PUSH32 0x8C379A000000000000000000000000000000000000000000000000000000000 DUP2 MSTORE PUSH1 0x4 ADD PUSH2 0x8E8 SWAP1 PUSH2 0x16B7 JUMP JUMPDEST PUSH1 0x40 MLOAD DUP1 SWAP2 SUB SWAP1 REVERT JUMPDEST DUP2 PUSH1 0x4 PUSH0 DUP3 DUP2 MSTORE PUSH1 0x20 ADD SWAP1 DUP2 MSTORE PUSH1 0x20 ADD PUSH0 KECCAK256 PUSH0 CALLER PUSH20 0xFFFFFFFFFFFFFFFFFFFFFFFFFFFFFFFFFFFFFFFF AND PUSH20 0xFFFFFFFFFFFFFFFFFFFFFFFFFFFFFFFFFFFFFFFF AND DUP2 MSTORE PUSH1 0x20 ADD SWAP1 DUP2 MSTORE PUSH1 0x20 ADD PUSH0 KECCAK256 PUSH0 SWAP1 SLOAD SWAP1 PUSH2 0x100 EXP SWAP1 DIV PUSH1 0xFF AND ISZERO PUSH2 0x98B JUMPI PUSH1 0x40 MLOAD PUSH32 0x8C379A000000000000000000000000000000000000000000000000000000000 DUP2 MSTORE PUSH1 0x4 ADD PUSH2 0x982 SWAP1 PUSH2 0x181C JUMP JUMPDEST PUSH1 0x40 MLOAD DUP1 SWAP2 SUB SWAP1 REVERT JUMPDEST DUP3 PUSH1 0x3 DUP2 DUP2 SLOAD DUP2 LT PUSH2 0x9A0 JUMPI PUSH2 0x99F PUSH2 0x16D5 JUMP JUMPDEST JUMPDEST SWAP1 PUSH0 MSTORE PUSH1 0x20 PUSH0 KECCAK256 SWAP1 PUSH1 0x4 MUL ADD PUSH1 0x3 ADD PUSH0 SWAP1 SLOAD SWAP1 PUSH2 0x100 EXP SWAP1 DIV PUSH1 0xFF AND ISZERO PUSH2 0x9FC JUMPI PUSH1 0x40 MLOAD PUSH32 0x8C379A000000000000000000000000000000000000000000000000000000000 DUP2 MSTORE PUSH1 0x4 ADD PUSH2 0x9F3 SWAP1 PUSH2 0x174C JUMP JUMPDEST PUSH1 0x40 MLOAD DUP1 SWAP2 SUB SWAP1 REVERT JUMPDEST PUSH1 0x1 PUSH1 0x4 PUSH0 DUP7 DUP2 MSTORE PUSH1 0x20 ADD SWAP1 DUP2 MSTORE PUSH1 0x20 ADD PUSH0 KECCAK256 PUSH0 CALLER PUSH20 0xFFFFFFFFFFFFFFFFFFFFFFFFFFFFFFFFFFFFFFFF AND PUSH20 0xFFFFFFFFFFFFFFFFFFFFFFFFFFFFFFFFFFFFFFFF AND DUP2 MSTORE PUSH1 0x20 ADD SWAP1 DUP2 MSTORE PUSH1 0x20 ADD PUSH0 KECCAK256 PUSH0 PUSH2 0x100 EXP DUP2 SLOAD DUP2 PUSH1 0xFF MUL NOT AND SWAP1 DUP4 ISZERO ISZERO MUL OR SWAP1 SSTORE POP DUP4 CALLER PUSH20 0xFFFFFFFFFFFFFFFFFFFFFFFFFFFFFFFFFFFFFFFF AND PUSH32 0x90EC57F18FA7B15C6B8D5E4D1DEB90796C74B2FF23D4D0CECAD0CB42A96B3128 PUSH1 0x40 MLOAD PUSH1 0x40 MLOAD DUP1 SWAP2 SUB SWAP1 LOG3 POP POP POP POP JUMP JUMPDEST PUSH1 0x4 PUSH1 0x20 MSTORE DUP2 PUSH0 MSTORE PUSH1 0x40 PUSH0 KECCAK256 PUSH1 0x20 MSTORE DUP1 PUSH0 MSTORE PUSH1 0x40 PUSH0 KECCAK256 PUSH0 SWAP2 POP SWAP2 POP SWAP1 SLOAD SWAP1 PUSH2 0x100 EXP SWAP1 DIV PUSH1 0xFF AND DUP2 JUMP JUMPDEST PUSH1 0x3 DUP2 DUP2 SLOAD DUP2 LT PUSH2 0xAE3 JUMPI PUSH0 DUP1 REVERT JUMPDEST SWAP1 PUSH0 MSTORE PUSH1 0x20 PUSH0 KECCAK256 SWAP1 PUSH1 0x4 MUL ADD PUSH0 SWAP2 POP SWAP1 POP DUP1 PUSH0 ADD PUSH0 SWAP1 SLOAD SWAP1 PUSH2 0x100 EXP SWAP1 DIV PUSH20 0xFFFFFFFFFFFFFFFFFFFFFFFFFFFFFFFFFFFFFFFF AND SWAP1 DUP1 PUSH1 0x1 ADD SLOAD SWAP1 DUP1 PUSH1 0x2 ADD DUP1 SLOAD PUSH2 0xB2D SWAP1 PUSH2 0x1371 JUMP JUMPDEST DUP1 PUSH1 0x1F ADD PUSH1 0x20 DUP1 SWAP2 DIV MUL PUSH1 0x20 ADD PUSH1 0x40 MLOAD SWAP1 DUP2 ADD PUSH1 0x40 MSTORE DUP1 SWAP3 SWAP2 SWAP1 DUP2 DUP2 MSTORE PUSH1 0x20 ADD DUP3 DUP1 SLOAD PUSH2 0xB59 SWAP1 PUSH2 0x1371 JUMP JUMPDEST DUP1 ISZERO PUSH2 0xBA4 JUMPI DUP1 PUSH1 0x1F LT PUSH2 0xB7B JUMPI PUSH2 0x100 DUP1 DUP4 SLOAD DIV MUL DUP4 MSTORE SWAP2 PUSH1 0x20 ADD SWAP2 PUSH2 0xBA4 JUMP JUMPDEST DUP3 ADD SWAP2 SWAP1 PUSH0 MSTORE PUSH1 0x20 PUSH0 KECCAK256 SWAP1 JUMPDEST DUP2 SLOAD DUP2 MSTORE SWAP1 PUSH1 0x1 ADD SWAP1 PUSH1 0x20 ADD DUP1 DUP4 GT PUSH2 0xB87 JUMPI DUP3 SWAP1 SUB PUSH1 0x1F AND DUP3 ADD SWAP2 JUMPDEST POP POP POP POP POP SWAP1 DUP1 PUSH1 0x3 ADD PUSH0 SWAP1 SLOAD SWAP1 PUSH2 0x100 EXP SWAP1 DIV PUSH1 0xFF AND SWAP1 POP DUP5 JUMP JUMPDEST PUSH0 DUP1 PUSH0 SWAP1 POP JUMPDEST PUSH0 DUP1 SLOAD SWAP1 POP DUP2 LT ISZERO PUSH2 0xC87 JUMPI PUSH1 0x4 PUSH0 DUP5 DUP2 MSTORE PUSH1 0x20 ADD SWAP1 DUP2 MSTORE PUSH1 0x20 ADD PUSH0 KECCAK256 PUSH0 DUP1 DUP4 DUP2 SLOAD DUP2 LT PUSH2 0xBF7 JUMPI PUSH2 0xBF6 PUSH2 0x16D5 JUMP JUMPDEST JUMPDEST SWAP1 PUSH0 MSTORE PUSH1 0x20 PUSH0 KECCAK256 ADD PUSH0 SWAP1 SLOAD SWAP1 PUSH2 0x100 EXP SWAP1 DIV PUSH20 0xFFFFFFFFFFFFFFFFFFFFFFFFFFFFFFFFFFFFFFFF AND PUSH20 0xFFFFFFFFFFFFFFFFFFFFFFFFFFFFFFFFFFFFFFFF AND PUSH20 0xFFFFFFFFFFFFFFFFFFFFFFFFFFFFFFFFFFFFFFFF AND DUP2 MSTORE PUSH1 0x20 ADD SWAP1 DUP2 MSTORE PUSH1 0x20 ADD PUSH0 KECCAK256 PUSH0 SWAP1 SLOAD SWAP1 PUSH2 0x100 EXP SWAP1 DIV PUSH1 0xFF AND ISZERO PUSH2 0xC7A JUMPI PUSH1 0x1 DUP3 PUSH2 0xC77 SWAP2 SWAP1 PUSH2 0x183A JUMP JUMPDEST SWAP2 POP JUMPDEST DUP1 DUP1 PUSH1 0x1 ADD SWAP2 POP POP PUSH2 0xBC6 JUMP JUMPDEST POP SWAP2 SWAP1 POP JUMP JUMPDEST PUSH1 0x2 SLOAD DUP2 JUMP JUMPDEST PUSH1 0x1 PUSH0 CALLER PUSH20 0xFFFFFFFFFFFFFFFFFFFFFFFFFFFFFFFFFFFFFFFF AND PUSH20 0xFFFFFFFFFFFFFFFFFFFFFFFFFFFFFFFFFFFFFFFF AND DUP2 MSTORE PUSH1 0x20 ADD SWAP1 DUP2 MSTORE PUSH1 0x20 ADD PUSH0 KECCAK256 PUSH0 SWAP1 SLOAD SWAP1 PUSH2 0x100 EXP SWAP1 DIV PUSH1 0xFF AND PUSH2 0xD1C JUMPI PUSH1 0x40 MLOAD PUSH32 0x8C379A000000000000000000000000000000000000000000000000000000000 DUP2 MSTORE PUSH1 0x4 ADD PUSH2 0xD13 SWAP1 PUSH2 0x12F9 JUMP JUMPDEST PUSH1 0x40 MLOAD DUP1 SWAP2 SUB SWAP1 REVERT JUMPDEST DUP1 PUSH1 0x3 DUP1 SLOAD SWAP1 POP DUP2 LT PUSH2 0xD64 JUMPI PUSH1 0x40 MLOAD PUSH32 0x8C379A000000000000000000000000000000000000000000000000000000000 DUP2 MSTORE PUSH1 0x4 ADD PUSH2 0xD5B SWAP1 PUSH2 0x16B7 JUMP JUMPDEST PUSH1 0x40 MLOAD DUP1 SWAP2 SUB SWAP1 REVERT JUMPDEST DUP2 PUSH1 0x3 DUP2 DUP2 SLOAD DUP2 LT PUSH2 0xD79 JUMPI PUSH2 0xD78 PUSH2 0x16D5 JUMP JUMPDEST JUMPDEST SWAP1 PUSH0 MSTORE PUSH1 0x20 PUSH0 KECCAK256 SWAP1 PUSH1 0x4 MUL ADD PUSH1 0x3 ADD PUSH0 SWAP1 SLOAD SWAP1 PUSH2 0x100 EXP SWAP1 DIV PUSH1 0xFF AND ISZERO PUSH2 0xDD5 JUMPI PUSH1 0x40 MLOAD PUSH32 0x8C379A000000000000000000000000000000000000000000000000000000000 DUP2 MSTORE PUSH1 0x4 ADD PUSH2 0xDCC SWAP1 PUSH2 0x174C JUMP JUMPDEST PUSH1 0x40 MLOAD DUP1 SWAP2 SUB SWAP1 REVERT JUMPDEST PUSH1 0x2 SLOAD PUSH2 0xDE1 DUP5 PUSH2 0xBC0 JUMP JUMPDEST GT PUSH2 0xE21 JUMPI PUSH1 0x40 MLOAD PUSH32 0x8C379A000000000000000000000000000000000000000000000000000000000 DUP2 MSTORE PUSH1 0x4 ADD PUSH2 0xE18 SWAP1 PUSH2 0x18B7 JUMP JUMPDEST PUSH1 0x40 MLOAD DUP1 SWAP2 SUB SWAP1 REVERT JUMPDEST PUSH0 PUSH1 0x3 DUP5 DUP2 SLOAD DUP2 LT PUSH2 0xE36 JUMPI PUSH2 0xE35 PUSH2 0x16D5 JUMP JUMPDEST JUMPDEST SWAP1 PUSH0 MSTORE PUSH1 0x20 PUSH0 KECCAK256 SWAP1 PUSH1 0x4 MUL ADD SWAP1 POP PUSH1 0x1 DUP2 PUSH1 0x3 ADD PUSH0 PUSH2 0x100 EXP DUP2 SLOAD DUP2 PUSH1 0xFF MUL NOT AND SWAP1 DUP4 ISZERO ISZERO MUL OR SWAP1 SSTORE POP PUSH0 DUP2 PUSH0 ADD PUSH0 SWAP1 SLOAD SWAP1 PUSH2 0x100 EXP SWAP1 DIV PUSH20 0xFFFFFFFFFFFFFFFFFFFFFFFFFFFFFFFFFFFFFFFF AND PUSH20 0xFFFFFFFFFFFFFFFFFFFFFFFFFFFFFFFFFFFFFFFF AND DUP3 PUSH1 0x1 ADD SLOAD DUP4 PUSH1 0x2 ADD PUSH1 0x40 MLOAD PUSH2 0xEB0 SWAP2 SWAP1 PUSH2 0x195F JUMP JUMPDEST PUSH0 PUSH1 0x40 MLOAD DUP1 DUP4 SUB DUP2 DUP6 DUP8 GAS CALL SWAP3 POP POP POP RETURNDATASIZE DUP1 PUSH0 DUP2 EQ PUSH2 0xEEA JUMPI PUSH1 0x40 MLOAD SWAP2 POP PUSH1 0x1F NOT PUSH1 0x3F RETURNDATASIZE ADD AND DUP3 ADD PUSH1 0x40 MSTORE RETURNDATASIZE DUP3 MSTORE RETURNDATASIZE PUSH0 PUSH1 0x20 DUP5 ADD RETURNDATACOPY PUSH2 0xEEF JUMP JUMPDEST PUSH1 0x60 SWAP2 POP JUMPDEST POP POP SWAP1 POP DUP1 PUSH2 0xF33 JUMPI PUSH1 0x40 MLOAD PUSH32 0x8C379A000000000000000000000000000000000000000000000000000000000 DUP2 MSTORE PUSH1 0x4 ADD PUSH2 0xF2A SWAP1 PUSH2 0x19BF JUMP JUMPDEST PUSH1 0x40 MLOAD DUP1 SWAP2 SUB SWAP1 REVERT JUMPDEST DUP5 PUSH32 0xDDB556F1D2C1EC821E910B019D3685B229DB152A0ECD517CA7E24B8BD7139289 PUSH1 0x40 MLOAD PUSH1 0x40 MLOAD DUP1 SWAP2 SUB SWAP1 LOG2 POP POP POP POP POP JUMP JUMPDEST PUSH0 DUP2 SWAP1 POP SWAP2 SWAP1 POP JUMP JUMPDEST PUSH2 0xF79 DUP2 PUSH2 0xF67 JUMP JUMPDEST DUP3 MSTORE POP POP JUMP JUMPDEST PUSH0 PUSH1 0x20 DUP3 ADD SWAP1 POP PUSH2 0xF92 PUSH0 DUP4 ADD DUP5 PUSH2 0xF70 JUMP JUMPDEST SWAP3 SWAP2 POP POP JUMP JUMPDEST PUSH0 DUP1 REVERT JUMPDEST PUSH0 DUP1 REVERT JUMPDEST PUSH2 0xFA9 DUP2 PUSH2 0xF67 JUMP JUMPDEST DUP2 EQ PUSH2 0xFB3 JUMPI PUSH0 DUP1 REVERT JUMPDEST POP JUMP JUMPDEST PUSH0 DUP2 CALLDATALOAD SWAP1 POP PUSH2 0xFC4 DUP2 PUSH2 0xFA0 JUMP JUMPDEST SWAP3 SWAP2 POP POP JUMP JUMPDEST PUSH0 PUSH1 0x20 DUP3 DUP5 SUB SLT ISZERO PUSH2 0xFDF JUMPI PUSH2 0xFDE PUSH2 0xF98 JUMP JUMPDEST JUMPDEST PUSH0 PUSH2 0xFEC DUP5 DUP3 DUP6 ADD PUSH2 0xFB6 JUMP JUMPDEST SWAP2 POP POP SWAP3 SWAP2 POP POP JUMP JUMPDEST PUSH0 PUSH20 0xFFFFFFFFFFFFFFFFFFFFFFFFFFFFFFFFFFFFFFFF DUP3 AND SWAP1 POP SWAP2 SWAP1 POP JUMP JUMPDEST PUSH0 PUSH2 0x101E DUP3 PUSH2 0xFF5 JUMP JUMPDEST SWAP1 POP SWAP2 SWAP1 POP JUMP JUMPDEST PUSH2 0x102E DUP2 PUSH2 0x1014 JUMP JUMPDEST DUP3 MSTORE POP POP JUMP JUMPDEST PUSH0 PUSH1 0x20 DUP3 ADD SWAP1 POP PUSH2 0x1047 PUSH0 DUP4 ADD DUP5 PUSH2 0x1025 JUMP JUMPDEST SWAP3 SWAP2 POP POP JUMP JUMPDEST PUSH2 0x1056 DUP2 PUSH2 0x1014 JUMP JUMPDEST DUP2 EQ PUSH2 0x1060 JUMPI PUSH0 DUP1 REVERT JUMPDEST POP JUMP JUMPDEST PUSH0 DUP2 CALLDATALOAD SWAP1 POP PUSH2 0x1071 DUP2 PUSH2 0x104D JUMP JUMPDEST SWAP3 SWAP2 POP POP JUMP JUMPDEST PUSH0 DUP1 REVERT JUMPDEST PUSH0 DUP1 REVERT JUMPDEST PUSH0 DUP1 REVERT JUMPDEST PUSH0 DUP1 DUP4 PUSH1 0x1F DUP5 ADD SLT PUSH2 0x1098 JUMPI PUSH2 0x1097 PUSH2 0x1077 JUMP JUMPDEST JUMPDEST DUP3 CALLDATALOAD SWAP1 POP PUSH8 0xFFFFFFFFFFFFFFFF DUP2 GT ISZERO PUSH2 0x10B5 JUMPI PUSH2 0x10B4 PUSH2 0x107B JUMP JUMPDEST JUMPDEST PUSH1 0x20 DUP4 ADD SWAP2 POP DUP4 PUSH1 0x1 DUP3 MUL DUP4 ADD GT ISZERO PUSH2 0x10D1 JUMPI PUSH2 0x10D0 PUSH2 0x107F JUMP JUMPDEST JUMPDEST SWAP3 POP SWAP3 SWAP1 POP JUMP JUMPDEST PUSH0 DUP1 PUSH0 DUP1 PUSH1 0x60 DUP6 DUP8 SUB SLT ISZERO PUSH2 0x10F0 JUMPI PUSH2 0x10EF PUSH2 0xF98 JUMP JUMPDEST JUMPDEST PUSH0 PUSH2 0x10FD DUP8 DUP3 DUP9 ADD PUSH2 0x1063 JUMP JUMPDEST SWAP5 POP POP PUSH1 0x20 PUSH2 0x110E DUP8 DUP3 DUP9 ADD PUSH2 0xFB6 JUMP JUMPDEST SWAP4 POP POP PUSH1 0x40 DUP6 ADD CALLDATALOAD PUSH8 0xFFFFFFFFFFFFFFFF DUP2 GT ISZERO PUSH2 0x112F JUMPI PUSH2 0x112E PUSH2 0xF9C JUMP JUMPDEST JUMPDEST PUSH2 0x113B DUP8 DUP3 DUP9 ADD PUSH2 0x1083 JUMP JUMPDEST SWAP3 POP SWAP3 POP POP SWAP3 SWAP6 SWAP2 SWAP5 POP SWAP3 POP JUMP JUMPDEST PUSH0 PUSH1 0x20 DUP3 DUP5 SUB SLT ISZERO PUSH2 0x115E JUMPI PUSH2 0x115D PUSH2 0xF98 JUMP JUMPDEST JUMPDEST PUSH0 PUSH2 0x116B DUP5 DUP3 DUP6 ADD PUSH2 0x1063 JUMP JUMPDEST SWAP2 POP POP SWAP3 SWAP2 POP POP JUMP JUMPDEST PUSH0 DUP2 ISZERO ISZERO SWAP1 POP SWAP2 SWAP1 POP JUMP JUMPDEST PUSH2 0x1188 DUP2 PUSH2 0x1174 JUMP JUMPDEST DUP3 MSTORE POP POP JUMP JUMPDEST PUSH0 PUSH1 0x20 DUP3 ADD SWAP1 POP PUSH2 0x11A1 PUSH0 DUP4 ADD DUP5 PUSH2 0x117F JUMP JUMPDEST SWAP3 SWAP2 POP POP JUMP JUMPDEST PUSH0 DUP1 PUSH1 0x40 DUP4 DUP6 SUB SLT ISZERO PUSH2 0x11BD JUMPI PUSH2 0x11BC PUSH2 0xF98 JUMP JUMPDEST JUMPDEST PUSH0 PUSH2 0x11CA DUP6 DUP3 DUP7 ADD PUSH2 0xFB6 JUMP JUMPDEST SWAP3 POP POP PUSH1 0x20 PUSH2 0x11DB DUP6 DUP3 DUP7 ADD PUSH2 0x1063 JUMP JUMPDEST SWAP2 POP POP SWAP3 POP SWAP3 SWAP1 POP JUMP JUMPDEST PUSH0 DUP2 MLOAD SWAP1 POP SWAP2 SWAP1 POP JUMP JUMPDEST PUSH0 DUP3 DUP3 MSTORE PUSH1 0x20 DUP3 ADD SWAP1 POP SWAP3 SWAP2 POP POP JUMP JUMPDEST DUP3 DUP2 DUP4 MCOPY PUSH0 DUP4 DUP4 ADD MSTORE POP POP POP JUMP JUMPDEST PUSH0 PUSH1 0x1F NOT PUSH1 0x1F DUP4 ADD AND SWAP1 POP SWAP2 SWAP1 POP JUMP JUMPDEST PUSH0 PUSH2 0x1227 DUP3 PUSH2 0x11E5 JUMP JUMPDEST PUSH2 0x1231 DUP2 DUP6 PUSH2 0x11EF JUMP JUMPDEST SWAP4 POP PUSH2 0x1241 DUP2 DUP6 PUSH1 0x20 DUP7 ADD PUSH2 0x11FF JUMP JUMPDEST PUSH2 0x124A DUP2 PUSH2 0x120D JUMP JUMPDEST DUP5 ADD SWAP2 POP POP SWAP3 SWAP2 POP POP JUMP JUMPDEST PUSH0 PUSH1 0x80 DUP3 ADD SWAP1 POP PUSH2 0x1268 PUSH0 DUP4 ADD DUP8 PUSH2 0x1025 JUMP JUMPDEST PUSH2 0x1275 PUSH1 0x20 DUP4 ADD DUP7 PUSH2 0xF70 JUMP JUMPDEST DUP2 DUP2 SUB PUSH1 0x40 DUP4 ADD MSTORE PUSH2 0x1287 DUP2 DUP6 PUSH2 0x121D JUMP JUMPDEST SWAP1 POP PUSH2 0x1296 PUSH1 0x60 DUP4 ADD DUP5 PUSH2 0x117F JUMP JUMPDEST SWAP6 SWAP5 POP POP POP POP POP JUMP JUMPDEST PUSH0 DUP3 DUP3 MSTORE PUSH1 0x20 DUP3 ADD SWAP1 POP SWAP3 SWAP2 POP POP JUMP JUMPDEST PUSH32 0x6E6F74206F776E65720000000000000000000000000000000000000000000000 PUSH0 DUP3 ADD MSTORE POP JUMP JUMPDEST PUSH0 PUSH2 0x12E3 PUSH1 0x9 DUP4 PUSH2 0x129F JUMP JUMPDEST SWAP2 POP PUSH2 0x12EE DUP3 PUSH2 0x12AF JUMP JUMPDEST PUSH1 0x20 DUP3 ADD SWAP1 POP SWAP2 SWAP1 POP JUMP JUMPDEST PUSH0 PUSH1 0x20 DUP3 ADD SWAP1 POP DUP2 DUP2 SUB PUSH0 DUP4 ADD MSTORE PUSH2 0x1310 DUP2 PUSH2 0x12D7 JUMP JUMPDEST SWAP1 POP SWAP2 SWAP1 POP JUMP JUMPDEST PUSH32 0x4E487B7100000000000000000000000000000000000000000000000000000000 PUSH0 MSTORE PUSH1 0x41 PUSH1 0x4 MSTORE PUSH1 0x24 PUSH0 REVERT JUMPDEST PUSH32 0x4E487B7100000000000000000000000000000000000000000000000000000000 PUSH0 MSTORE PUSH1 0x22 PUSH1 0x4 MSTORE PUSH1 0x24 PUSH0 REVERT JUMPDEST PUSH0 PUSH1 0x2 DUP3 DIV SWAP1 POP PUSH1 0x1 DUP3 AND DUP1 PUSH2 0x1388 JUMPI PUSH1 0x7F DUP3 AND SWAP2 POP JUMPDEST PUSH1 0x20 DUP3 LT DUP2 SUB PUSH2 0x139B JUMPI PUSH2 0x139A PUSH2 0x1344 JUMP JUMPDEST JUMPDEST POP SWAP2 SWAP1 POP JUMP JUMPDEST PUSH0 DUP2 SWAP1 POP DUP2 PUSH0 MSTORE PUSH1 0x20 PUSH0 KECCAK256 SWAP1 POP SWAP2 SWAP1 POP JUMP JUMPDEST PUSH0 PUSH1 0x20 PUSH1 0x1F DUP4 ADD DIV SWAP1 POP SWAP2 SWAP1 POP JUMP JUMPDEST PUSH0 DUP3 DUP3 SHL SWAP1 POP SWAP3 SWAP2 POP POP JUMP JUMPDEST PUSH0 PUSH1 0x8 DUP4 MUL PUSH2 0x13FD PUSH32 0xFFFFFFFFFFFFFFFFFFFFFFFFFFFFFFFFFFFFFFFFFFFFFFFFFFFFFFFFFFFFFFFF DUP3 PUSH2 0x13C2 JUMP JUMPDEST PUSH2 0x1407 DUP7 DUP4 PUSH2 0x13C2 JUMP JUMPDEST SWAP6 POP DUP1 NOT DUP5 AND SWAP4 POP DUP1 DUP7 AND DUP5 OR SWAP3 POP POP POP SWAP4 SWAP3 POP POP POP JUMP JUMPDEST PUSH0 DUP2 SWAP1 POP SWAP2 SWAP1 POP JUMP JUMPDEST PUSH0 PUSH2 0x1442 PUSH2 0x143D PUSH2 0x1438 DUP5 PUSH2 0xF67 JUMP JUMPDEST PUSH2 0x141F JUMP JUMPDEST PUSH2 0xF67 JUMP JUMPDEST SWAP1 POP SWAP2 SWAP1 POP JUMP JUMPDEST PUSH0 DUP2 SWAP1 POP SWAP2 SWAP1 POP JUMP JUMPDEST PUSH2 0x145B DUP4 PUSH2 0x1428 JUMP JUMPDEST PUSH2 0x146F PUSH2 0x1467 DUP3 PUSH2 0x1449 JUMP JUMPDEST DUP5 DUP5 SLOAD PUSH2 0x13CE JUMP JUMPDEST DUP3 SSTORE POP POP POP POP JUMP JUMPDEST PUSH0 SWAP1 JUMP JUMPDEST PUSH2 0x1483 PUSH2 0x1477 JUMP JUMPDEST PUSH2 0x148E DUP2 DUP5 DUP5 PUSH2 0x1452 JUMP JUMPDEST POP POP POP JUMP JUMPDEST JUMPDEST DUP2 DUP2 LT ISZERO PUSH2 0x14B1 JUMPI PUSH2 0x14A6 PUSH0 DUP3 PUSH2 0x147B JUMP JUMPDEST PUSH1 0x1 DUP2 ADD SWAP1 POP PUSH2 0x1494 JUMP JUMPDEST POP POP JUMP JUMPDEST PUSH1 0x1F DUP3 GT ISZERO PUSH2 0x14F6 JUMPI PUSH2 0x14C7 DUP2 PUSH2 0x13A1 JUMP JUMPDEST PUSH2 0x14D0 DUP5 PUSH2 0x13B3 JUMP JUMPDEST DUP2 ADD PUSH1 0x20 DUP6 LT ISZERO PUSH2 0x14DF JUMPI DUP2 SWAP1 POP JUMPDEST PUSH2 0x14F3 PUSH2 0x14EB DUP6 PUSH2 0x13B3 JUMP JUMPDEST DUP4 ADD DUP3 PUSH2 0x1493 JUMP JUMPDEST POP POP JUMPDEST POP POP POP JUMP JUMPDEST PUSH0 DUP3 DUP3 SHR SWAP1 POP SWAP3 SWAP2 POP POP JUMP JUMPDEST PUSH0 PUSH2 0x1516 PUSH0 NOT DUP5 PUSH1 0x8 MUL PUSH2 0x14FB JUMP JUMPDEST NOT DUP1 DUP4 AND SWAP2 POP POP SWAP3 SWAP2 POP POP JUMP JUMPDEST PUSH0 PUSH2 0x152E DUP4 DUP4 PUSH2 0x1507 JUMP JUMPDEST SWAP2 POP DUP3 PUSH1 0x2 MUL DUP3 OR SWAP1 POP SWAP3 SWAP2 POP POP JUMP JUMPDEST PUSH2 0x1547 DUP3 PUSH2 0x11E5 JUMP JUMPDEST PUSH8 0xFFFFFFFFFFFFFFFF DUP2 GT ISZERO PUSH2 0x1560 JUMPI PUSH2 0x155F PUSH2 0x1317 JUMP JUMPDEST JUMPDEST PUSH2 0x156A DUP3 SLOAD PUSH2 0x1371 JUMP JUMPDEST PUSH2 0x1575 DUP3 DUP3 DUP6 PUSH2 0x14B5 JUMP JUMPDEST PUSH0 PUSH1 0x20 SWAP1 POP PUSH1 0x1F DUP4 GT PUSH1 0x1 DUP2 EQ PUSH2 0x15A6 JUMPI PUSH0 DUP5 ISZERO PUSH2 0x1594 JUMPI DUP3 DUP8 ADD MLOAD SWAP1 POP JUMPDEST PUSH2 0x159E DUP6 DUP3 PUSH2 0x1523 JUMP JUMPDEST DUP7 SSTORE POP PUSH2 0x1605 JUMP JUMPDEST PUSH1 0x1F NOT DUP5 AND PUSH2 0x15B4 DUP7 PUSH2 0x13A1 JUMP JUMPDEST PUSH0 JUMPDEST DUP3 DUP2 LT ISZERO PUSH2 0x15DB JUMPI DUP5 DUP10 ADD MLOAD DUP3 SSTORE PUSH1 0x1 DUP3 ADD SWAP2 POP PUSH1 0x20 DUP6 ADD SWAP5 POP PUSH1 0x20 DUP2 ADD SWAP1 POP PUSH2 0x15B6 JUMP JUMPDEST DUP7 DUP4 LT ISZERO PUSH2 0x15F8 JUMPI DUP5 DUP10 ADD MLOAD PUSH2 0x15F4 PUSH1 0x1F DUP10 AND DUP3 PUSH2 0x1507 JUMP JUMPDEST DUP4 SSTORE POP JUMPDEST PUSH1 0x1 PUSH1 0x2 DUP9 MUL ADD DUP9 SSTORE POP POP POP JUMPDEST POP POP POP POP POP POP JUMP JUMPDEST PUSH32 0x4E487B7100000000000000000000000000000000000000000000000000000000 PUSH0 MSTORE PUSH1 0x11 PUSH1 0x4 MSTORE PUSH1 0x24 PUSH0 REVERT JUMPDEST PUSH0 PUSH2 0x1644 DUP3 PUSH2 0xF67 JUMP JUMPDEST SWAP2 POP PUSH2 0x164F DUP4 PUSH2 0xF67 JUMP JUMPDEST SWAP3 POP DUP3 DUP3 SUB SWAP1 POP DUP2 DUP2 GT ISZERO PUSH2 0x1667 JUMPI PUSH2 0x1666 PUSH2 0x160D JUMP JUMPDEST JUMPDEST SWAP3 SWAP2 POP POP JUMP JUMPDEST PUSH32 0x747820646F657327742065786973740000000000000000000000000000000000 PUSH0 DUP3 ADD MSTORE POP JUMP JUMPDEST PUSH0 PUSH2 0x16A1 PUSH1 0xF DUP4 PUSH2 0x129F JUMP JUMPDEST SWAP2 POP PUSH2 0x16AC DUP3 PUSH2 0x166D JUMP JUMPDEST PUSH1 0x20 DUP3 ADD SWAP1 POP SWAP2 SWAP1 POP JUMP JUMPDEST PUSH0 PUSH1 0x20 DUP3 ADD SWAP1 POP DUP2 DUP2 SUB PUSH0 DUP4 ADD MSTORE PUSH2 0x16CE DUP2 PUSH2 0x1695 JUMP JUMPDEST SWAP1 POP SWAP2 SWAP1 POP JUMP JUMPDEST PUSH32 0x4E487B7100000000000000000000000000000000000000000000000000000000 PUSH0 MSTORE PUSH1 0x32 PUSH1 0x4 MSTORE PUSH1 0x24 PUSH0 REVERT JUMPDEST PUSH32 0x7478206973206578656374656400000000000000000000000000000000000000 PUSH0 DUP3 ADD MSTORE POP JUMP JUMPDEST PUSH0 PUSH2 0x1736 PUSH1 0xD DUP4 PUSH2 0x129F JUMP JUMPDEST SWAP2 POP PUSH2 0x1741 DUP3 PUSH2 0x1702 JUMP JUMPDEST PUSH1 0x20 DUP3 ADD SWAP1 POP SWAP2 SWAP1 POP JUMP JUMPDEST PUSH0 PUSH1 0x20 DUP3 ADD SWAP1 POP DUP2 DUP2 SUB PUSH0 DUP4 ADD MSTORE PUSH2 0x1763 DUP2 PUSH2 0x172A JUMP JUMPDEST SWAP1 POP SWAP2 SWAP1 POP JUMP JUMPDEST PUSH32 0x7478206E6F7420617070726F7665640000000000000000000000000000000000 PUSH0 DUP3 ADD MSTORE POP JUMP JUMPDEST PUSH0 PUSH2 0x179E PUSH1 0xF DUP4 PUSH2 0x129F JUMP JUMPDEST SWAP2 POP PUSH2 0x17A9 DUP3 PUSH2 0x176A JUMP JUMPDEST PUSH1 0x20 DUP3 ADD SWAP1 POP SWAP2 SWAP1 POP JUMP JUMPDEST PUSH0 PUSH1 0x20 DUP3 ADD SWAP1 POP DUP2 DUP2 SUB PUSH0 DUP4 ADD MSTORE PUSH2 0x17CB DUP2 PUSH2 0x1792 JUMP JUMPDEST SWAP1 POP SWAP2 SWAP1 POP JUMP JUMPDEST PUSH32 0x747820616C726561647920617070726F76656400000000000000000000000000 PUSH0 DUP3 ADD MSTORE POP JUMP JUMPDEST PUSH0 PUSH2 0x1806 PUSH1 0x13 DUP4 PUSH2 0x129F JUMP JUMPDEST SWAP2 POP PUSH2 0x1811 DUP3 PUSH2 0x17D2 JUMP JUMPDEST PUSH1 0x20 DUP3 ADD SWAP1 POP SWAP2 SWAP1 POP JUMP JUMPDEST PUSH0 PUSH1 0x20 DUP3 ADD SWAP1 POP DUP2 DUP2 SUB PUSH0 DUP4 ADD MSTORE PUSH2 0x1833 DUP2 PUSH2 0x17FA JUMP JUMPDEST SWAP1 POP SWAP2 SWAP1 POP JUMP JUMPDEST PUSH0 PUSH2 0x1844 DUP3 PUSH2 0xF67 JUMP JUMPDEST SWAP2 POP PUSH2 0x184F DUP4 PUSH2 0xF67 JUMP JUMPDEST SWAP3 POP DUP3 DUP3 ADD SWAP1 POP DUP1 DUP3 GT ISZERO PUSH2 0x1867 JUMPI PUSH2 0x1866 PUSH2 0x160D JUMP JUMPDEST JUMPDEST SWAP3 SWAP2 POP POP JUMP JUMPDEST PUSH32 0x617070726F76616C73203C207265717569726564000000000000000000000000 PUSH0 DUP3 ADD MSTORE POP JUMP JUMPDEST PUSH0 PUSH2 0x18A1 PUSH1 0x14 DUP4 PUSH2 0x129F JUMP JUMPDEST SWAP2 POP PUSH2 0x18AC DUP3 PUSH2 0x186D JUMP JUMPDEST PUSH1 0x20 DUP3 ADD SWAP1 POP SWAP2 SWAP1 POP JUMP JUMPDEST PUSH0 PUSH1 0x20 DUP3 ADD SWAP1 POP DUP2 DUP2 SUB PUSH0 DUP4 ADD MSTORE PUSH2 0x18CE DUP2 PUSH2 0x1895 JUMP JUMPDEST SWAP1 POP SWAP2 SWAP1 POP JUMP JUMPDEST PUSH0 DUP2 SWAP1 POP SWAP3 SWAP2 POP POP JUMP JUMPDEST PUSH0 DUP2 SLOAD PUSH2 0x18EB DUP2 PUSH2 0x1371 JUMP JUMPDEST PUSH2 0x18F5 DUP2 DUP7 PUSH2 0x18D5 JUMP JUMPDEST SWAP5 POP PUSH1 0x1 DUP3 AND PUSH0 DUP2 EQ PUSH2 0x190F JUMPI PUSH1 0x1 DUP2 EQ PUSH2 0x1924 JUMPI PUSH2 0x1956 JUMP JUMPDEST PUSH1 0xFF NOT DUP4 AND DUP7 MSTORE DUP2 ISZERO ISZERO DUP3 MUL DUP7 ADD SWAP4 POP PUSH2 0x1956 JUMP JUMPDEST PUSH2 0x192D DUP6 PUSH2 0x13A1 JUMP JUMPDEST PUSH0 JUMPDEST DUP4 DUP2 LT ISZERO PUSH2 0x194E JUMPI DUP2 SLOAD DUP2 DUP10 ADD MSTORE PUSH1 0x1 DUP3 ADD SWAP2 POP PUSH1 0x20 DUP2 ADD SWAP1 POP PUSH2 0x192F JUMP JUMPDEST DUP4 DUP9 ADD SWAP6 POP POP POP JUMPDEST POP POP POP SWAP3 SWAP2 POP POP JUMP JUMPDEST PUSH0 PUSH2 0x196A DUP3 DUP5 PUSH2 0x18DF JUMP JUMPDEST SWAP2 POP DUP2 SWAP1 POP SWAP3 SWAP2 POP POP JUMP JUMPDEST PUSH32 0x7478206661696C65640000000000000000000000000000000000000000000000 PUSH0 DUP3 ADD MSTORE POP JUMP JUMPDEST PUSH0 PUSH2 0x19A9 PUSH1 0x9 DUP4 PUSH2 0x129F JUMP JUMPDEST SWAP2 POP PUSH2 0x19B4 DUP3 PUSH2 0x1975 JUMP JUMPDEST PUSH1 0x20 DUP3 ADD SWAP1 POP SWAP2 SWAP1 POP JUMP JUMPDEST PUSH0 PUSH1 0x20 DUP3 ADD SWAP1 POP DUP2 DUP2 SUB PUSH0 DUP4 ADD MSTORE PUSH2 0x19D6 DUP2 PUSH2 0x199D JUMP JUMPDEST SWAP1 POP SWAP2 SWAP1 POP JUMP INVALID LOG2 PUSH5 0x6970667358 0x22 SLT KECCAK256 PUSH27 0x92C93EE6A67F5C5D2586D41F3EE6A841FF8F1ACCDAD0F7C2F43546 EXTCODECOPY PUSH28 0x49B564736F6C634300081A0033000000000000000000000000000000 "
		},
		"gasEstimates": {
			"creation": {
				"codeDepositCost": "1335000",
				"executionCost": "infinite",
				"totalCost": "infinite"
			},
			"external": {
				"approv(uint256)": "37421",
				"approved(uint256,address)": "3093",
				"execute(uint256)": "infinite",
				"getApprovalCount(uint256)": "infinite",
				"getBalance()": "357",
				"isOwner(address)": "2922",
				"owners(uint256)": "4944",
				"required()": "2513",
				"revoke(uint256)": "37479",
				"submit(address,uint256,bytes)": "infinite",
				"transactions(uint256)": "infinite"
			}
		},
		"methodIdentifiers": {
			"approv(uint256)": "6bdddcde",
			"approved(uint256,address)": "8253951a",
			"execute(uint256)": "fe0d94c1",
			"getApprovalCount(uint256)": "ba7e7cab",
			"getBalance()": "12065fe0",
			"isOwner(address)": "2f54bf6e",
			"owners(uint256)": "025e7c27",
			"required()": "dc8452cd",
			"revoke(uint256)": "20c5429b",
			"submit(address,uint256,bytes)": "14de327f",
			"transactions(uint256)": "9ace38c2"
		}
	},
	"abi": [
		{
			"inputs": [
				{
					"internalType": "address[]",
					"name": "_owners",
					"type": "address[]"
				},
				{
					"internalType": "uint256",
					"name": "_required",
					"type": "uint256"
				}
			],
			"stateMutability": "nonpayable",
			"type": "constructor"
		},
		{
			"anonymous": false,
			"inputs": [
				{
					"indexed": true,
					"internalType": "address",
					"name": "owner",
					"type": "address"
				},
				{
					"indexed": true,
					"internalType": "uint256",
					"name": "txId",
					"type": "uint256"
				}
			],
			"name": "Approve",
			"type": "event"
		},
		{
			"anonymous": false,
			"inputs": [
				{
					"indexed": true,
					"internalType": "address",
					"name": "sender",
					"type": "address"
				},
				{
					"indexed": false,
					"internalType": "uint256",
					"name": "amount",
					"type": "uint256"
				}
			],
			"name": "Deposit",
			"type": "event"
		},
		{
			"anonymous": false,
			"inputs": [
				{
					"indexed": true,
					"internalType": "uint256",
					"name": "txId",
					"type": "uint256"
				}
			],
			"name": "Execute",
			"type": "event"
		},
		{
			"anonymous": false,
			"inputs": [
				{
					"indexed": true,
					"internalType": "address",
					"name": "owner",
					"type": "address"
				},
				{
					"indexed": true,
					"internalType": "uint256",
					"name": "txId",
					"type": "uint256"
				}
			],
			"name": "Revoke",
			"type": "event"
		},
		{
			"anonymous": false,
			"inputs": [
				{
					"indexed": true,
					"internalType": "uint256",
					"name": "txId",
					"type": "uint256"
				}
			],
			"name": "Submit",
			"type": "event"
		},
		{
			"inputs": [
				{
					"internalType": "uint256",
					"name": "_txId",
					"type": "uint256"
				}
			],
			"name": "approv",
			"outputs": [],
			"stateMutability": "nonpayable",
			"type": "function"
		},
		{
			"inputs": [
				{
					"internalType": "uint256",
					"name": "",
					"type": "uint256"
				},
				{
					"internalType": "address",
					"name": "",
					"type": "address"
				}
			],
			"name": "approved",
			"outputs": [
				{
					"internalType": "bool",
					"name": "",
					"type": "bool"
				}
			],
			"stateMutability": "view",
			"type": "function"
		},
		{
			"inputs": [
				{
					"internalType": "uint256",
					"name": "_txId",
					"type": "uint256"
				}
			],
			"name": "execute",
			"outputs": [],
			"stateMutability": "nonpayable",
			"type": "function"
		},
		{
			"inputs": [
				{
					"internalType": "uint256",
					"name": "_txId",
					"type": "uint256"
				}
			],
			"name": "getApprovalCount",
			"outputs": [
				{
					"internalType": "uint256",
					"name": "count",
					"type": "uint256"
				}
			],
			"stateMutability": "view",
			"type": "function"
		},
		{
			"inputs": [],
			"name": "getBalance",
			"outputs": [
				{
					"internalType": "uint256",
					"name": "",
					"type": "uint256"
				}
			],
			"stateMutability": "view",
			"type": "function"
		},
		{
			"inputs": [
				{
					"internalType": "address",
					"name": "",
					"type": "address"
				}
			],
			"name": "isOwner",
			"outputs": [
				{
					"internalType": "bool",
					"name": "",
					"type": "bool"
				}
			],
			"stateMutability": "view",
			"type": "function"
		},
		{
			"inputs": [
				{
					"internalType": "uint256",
					"name": "",
					"type": "uint256"
				}
			],
			"name": "owners",
			"outputs": [
				{
					"internalType": "address",
					"name": "",
					"type": "address"
				}
			],
			"stateMutability": "view",
			"type": "function"
		},
		{
			"inputs": [],
			"name": "required",
			"outputs": [
				{
					"internalType": "uint256",
					"name": "",
					"type": "uint256"
				}
			],
			"stateMutability": "view",
			"type": "function"
		},
		{
			"inputs": [
				{
					"internalType": "uint256",
					"name": "_txId",
					"type": "uint256"
				}
			],
			"name": "revoke",
			"outputs": [],
			"stateMutability": "nonpayable",
			"type": "function"
		},
		{
			"inputs": [
				{
					"internalType": "address",
					"name": "_to",
					"type": "address"
				},
				{
					"internalType": "uint256",
					"name": "_value",
					"type": "uint256"
				},
				{
					"internalType": "bytes",
					"name": "_data",
					"type": "bytes"
				}
			],
			"name": "submit",
			"outputs": [
				{
					"internalType": "uint256",
					"name": "",
					"type": "uint256"
				}
			],
			"stateMutability": "nonpayable",
			"type": "function"
		},
		{
			"inputs": [
				{
					"internalType": "uint256",
					"name": "",
					"type": "uint256"
				}
			],
			"name": "transactions",
			"outputs": [
				{
					"internalType": "address",
					"name": "to",
					"type": "address"
				},
				{
					"internalType": "uint256",
					"name": "value",
					"type": "uint256"
				},
				{
					"internalType": "bytes",
					"name": "data",
					"type": "bytes"
				},
				{
					"internalType": "bool",
					"name": "exected",
					"type": "bool"
				}
			],
			"stateMutability": "view",
			"type": "function"
		},
		{
			"stateMutability": "payable",
			"type": "receive"
		}
	]
}